:100000006F00005B130000001300000013000000ED
:100010001300000013000000130000001300000094
:100020001300000013000000130000001300000084
:08003000130000007300100032
:100038000000000000000000480200004C02000020
:10004800000000004805000000000000000000005B
:100058004A0500004C0500000000000000000000F8
:100068004E050000000000005005000000000000E0
:100078005205000054050000560500005805000010
:100088005A0500005C0500005E05000060050000E0
:1000980062050000640500006605000068050000B0
:1000A8006A0500006C0500006E0500007005000080
:1000B8007205000074050000760500007805000050
:1000C8007A0500007C0500007E0500008005000020
:1000D80082050000840500008605000088050000F0
:1000E8008A0500008C0500008E05000090050000C0
:1000F8009205000094050000960500009805000090
:100108009A0500009C0500009E050000A00500005F
:10011800A2050000A4050000A6050000A80500002F
:10012800AA050000AC050000AE05000000000000B4
:080138000000000000000000BF
:10014000397101436EC619A0397141536AC866CA34
:1001500062CC5ECE19A0397101535AD056D252D416
:100160004ED64AD826DA22DC06DE3301614082828E
:1001700041114AC026C222C406C68282B24D410144
:10018000024D924C224CB24B4101024B924A224A00
:10019000B2494101024992442244B2404101828065
:1001A0003D432A876373C3029377F700BDEFADE544
:1001B000937606FF3D8ABA960CC34CC30CC74CC756
:1001C0004107E36BD7FE11E28280B306C3408A0683
:1001D0009702000096966780A6002307B700A30643
:1001E000B7002306B700A305B7002305B700A30493
:1001F000B7002304B700A303B7002303B700A3028B
:10020000B7002302B700A301B7002301B700A30082
:10021000B7002300B700828093F5F50F9396850011
:10022000D58D93960501D58D61B7939627009702DA
:10023000000096968682E78086FA9680C1171D8F09
:100240003E96E374C3F8A5B77300203001A0EFF227
:100250009FF09317450005651305855E3E95444163
:100260007971B717014002CA02CC02CE02D002D285
:1002700002D402D602C402C62318010013870780E5
:100280002E8AB289835A050000450329C50063966A
:10029000E408854511454929B7370140938707C0D0
:1002A0006318F40A0565854513050580B529E147FE
:1002B000231A51014C0826858D4A3ECE56CCA52ED8
:1002C000FD192C0022852316410123143101231727
:1002D0000100231501007921C167938707063ED0ED
:1002E000231301022314010285476309F90A6300FD
:1002F000090A8947630BF90A6300590D5E282285B4
:10030000854593E717005EA8F92D22858545FD25D3
:10031000854522856D2D45618DBD138707C0639589
:10032000E4008545214585BF6395F4008545414539
:100330009DB7938707406396F40085451305000237
:1003400099BF371500001305856EEF00B00BA9B7F4
:10035000B70700406316F40085450545ED2681BFCB
:10036000938707406315F40085450945C5BFB71756
:100370000040938707806315F40085451145F9BF58
:10038000371500001305856EEF00D0070DB70C1070
:100390002285352981452285BD2D8DB70C102285FA
:1003A000612981452285BD2D91BF0C102285052331
:1003B00081452285592599B70C1022855D238145F9
:1003C0002285592525BF9317450005651305855ED0
:1003D0003E95584585461C456300D70201CF8946A6
:1003E000630ED7008D46630DD700DA2B1367170015
:1003F000DAAB8280CEBBD5BF8EBFC5BFCEBFF5B74F
:100400002390B704DDB7EFF21FD50144C1441315A3
:100410000401130600199305F00F41810504053D01
:10042000E31794FEB1251305803E852DC149130ABB
:100430000010014413190401814413590901139553
:100440000401CA8541818504BD3FE39A34FF7945A3
:100450000504A125E31044FFE9BFB7170240984304
:10046000B706FFF841111367170098C3D843370642
:100470000200758FD8C39843B706F7FEFD16758F37
:1004800098C39843B706FCFFFD16758F98C3D843F1
:10049000B70681FFFD16758FD8C337079F0098C731
:1004A00002C402C69843C166558F98C3B71602406E
:1004B00005679C42F18F3EC6A24785073EC4B247FE
:1004C00081E7A247E397E7FEB71702409C431397E3
:1004D000E7006357070685473EC632478547631FD7
:1004E000F704B7170240D843B706C1FFFD16D8C3BB
:1004F000D843D8C3D84313670740D8C3D843758FB0
:10050000D8C3D843B7062900558FD8C39843B70638
:100510000001558F98C3984393166700E3DD06FEEC
:10052000D843B7160240719BD8C3D843136727003E
:10053000D8C32147DC42B18BE39EE7FE41018280B4
:1005400002C661BF01A001A001A001A001A001A0FD
:1005500001A001A001A001A001A001A001A001A093
:1005600001A001A001A001A001A001A001A001A083
:1005700001A001A001A001A001A001A001A001A073
:1005800001A001A001A001A001A001A001A001A063
:1005900001A001A001A001A001A001A001A001A053
:1005A00001A001A001A001A001A001A001A001A043
:1005B000970100209381012B17510020130181A482
:1005C000171500001305051997050020938585A3CD
:1005D0001386018163FAC5008322050023A055001C
:1005E00011059105E3EAC5FE1385018193854182DA
:1005F0006377B500232005001105E36DB5FEFD42CC
:10060000739002BC8D42739042809302800873A065
:10061000023097020000938262A293E2320073904C
:100620005230EFF09FE397020000938202DE739056
:100630001234730020309C4513F7070113F8F700BC
:1006400001C7D8413368E80037270240145B3707F9
:10065000000F758F4DEB85462388D18037170140F9
:100660006315E5009A2135839AA18E2113F7F50FC2
:1006700039C318418146854E3D4F930F8002930246
:100680008004214E3396DE00B3F8C50063111603D3
:100690009398260033131F011343F3FF3377E300CE
:1006A000B318180133E7E8006397F70750C98506C8
:1006B000E39AC6FD18C11307F00F6375B7045441E0
:1006C0002146854E3D4F930F800293028004414E98
:1006D000B398CE0033F715016392E8021317260092
:1006E00001173313EF001343F3FFB376D30033172F
:1006F000E800D98E6395F703232A15010506E3194F
:10070000C6FD54C1828037170140E310E5F603C7E8
:10071000018121DF81BFE39C57F810C949BFE39FE6
:1007200057FC23281501D9BF99C5371702401C4F24
:100730005D8D08CF8280B7170240984F1345F5FFB3
:10074000798D88CF828099C5371702405C4F5D8DC7
:1007500048CF8280B7170240D84F1345F5FF798DF7
:10076000C8CF82801E2137370140130707C0C20758
:10077000C1836304E502370700406300E502130705
:100780000740630CE50037170040930607806306B7
:10079000D500130707C06316E500BA2193F7F7F8F1
:1007A000D98FFA2193F7F7CFC207C183D98F1EA142
:1007B000DE215EB59E211EB5B7370140938707C085
:1007C0006314F5009C251EB985475EA982801E3101
:1007D000922103D82500C207C183F99BC207C183B8
:1007E0001EB11E3156211A2DC207C1834207418313
:1007F0001377C7F8518F9225F59BC2063366060121
:10080000D18F37360140130606C0C1826310C5027E
:10081000B225DD9B03D8E500D18FD221ED9B93F665
:10082000F6CFD18FD22533660601D18E56A11AADEF
:10083000FA215AB91EB182801E3165771307F7CFAE
:10084000C207C183BD9BC207C1831EB11E315621A1
:1008500003D88500C20713960601162DC18393F7AE
:10086000F7FD758F96214182A206558FB62142076A
:100870004183B3E606019206D58FB7360140C20721
:10088000938606C0C183631ED502B62593F7F7F79A
:1008900003D8C5009206D58FD621C207C183920620
:1008A00093F7F7FBD58FFD769386F63FF18EF22511
:1008B000C207C183336606010A06D18E139606016C
:1008C000418252A11AADFA211ABD1EB182801E3199
:1008D00003D88500C207C18393F7F7EFC207C1832E
:1008E0001EB11E3156215A2DC2071396060142072A
:1008F000962141831377C7F8558FB621C18393F7AB
:10090000F7DFB3E60601A206D58FB7360140C2076E
:10091000938606C04182C183631FD502FD7693860C
:10092000F67FF58FB62503D8C500A206D58FD62150
:10093000C207C183A20693F7F7BFD58FF576FD16E0
:10094000F18EF225C207C183336606011206D18EED
:1009500013960601418252A15AADFA215ABD1EB129
:1009600082801A31FD77FD17F98F1EB103580502F9
:1009700056215E2D657792211307F7CF7D8FF9778A
:100980002206FD17518FB3F70701B22103D8850066
:10099000C2064207336606013206D18F3736014060
:1009A000C207130606C0C1824183C183631AC50012
:1009B00071767D16F18ED2251A06D18EC206C182BD
:1009C00056A15AADFA212310E5041EB182801E21E2
:1009D00089C593E717001EA18280C207C183F99BD6
:1009E000C207C183CDBF8357450491C52167D98F05
:1009F0002312F5048280C607C583DDBF1E2189C589
:100A000093E707081EA18280C207C18393F7F7F717
:100A1000C207C183C5BF1E2DC207C183DD9BDD8D0B
:100A20000EAD82801A2DFD779387F77FF98FA2058F
:100A3000CD8FC207C1831EAD82805E2DC207C183E8
:100A4000DD9BDD8D4EAD82805A2DFD779387F77F3C
:100A5000F98FA205CD8FC207C1835EAD828093F569
:100A6000F51F4EA182800A216D8D3335A000828052
:100A7000B707002083A7070637177A001307072058
:100A8000B3D7E70293F7F70F238AF1801307803E6D
:100A9000B387E7022399F1808280B7F700E0D8435B
:100AA0008146799BD8C303D721813306A70290CB17
:100AB000D4CB98431367070198C398431367170271
:100AC00098C3D843058B75DF9843799B98C3828080
:100AD000EFF26FE8B7440140AE8932890144938454
:100AE0000480634524014A856FF02FEA93050004D2
:100AF0002685953F65DDB3878900838507002685B8
:100B00000504C205C181A13FE9BF138741801C4391
:100B1000938641823E95636BD500B756002093863D
:100B2000068063E5A60008C33E858280FD57EDBFC1
:100B3000011126CA4AC806CE22CC4EC652C4AA8487
:100B40002E8901C51C4D91E3E1219C4C804499E321
:100B500026857D29971700009387C7BB631BF40286
:100B6000C0405E24A18BB1C71C48A1C7FD59294ACA
:100B70001C4483450900FD17B1E91CC463DD070669
:100B80002286A94526856120FD576308F50229457F
:100B900035A0971700009387E7B96314F4008044E9
:100BA000C9B7971700009387E7B4E31CF4FAC04471
:100BB0004DBFA2852685112A55D97D55F240624444
:100BC000D2444249B249224A056182801CC40509C7
:100BD00063D70700184C63CAE700638845011C40CF
:100BE0001387170018C08CA361B7228626850520BD
:100BF000E31035F9D9B71C401387170018C02947EF
:100C000098A371B793878180AA85884315B701118E
:100C100022CC26CA4AC806CE4EC6AA842E89328461
:100C200001C51C4D91E3ED2697170000938787AE11
:100C30006317F406C0401C4C1CC45E24A18BC1C3C6
:100C40001C48B5CF1C4808409379F90F1379F90F68
:100C50001D8D5C486346F500A2852685692C25E537
:100C60001C440505FD171CC41C401387170018C041
:100C7000238037015C486388A7005E24858B81CB85
:100C8000A9476316F900A2852685B5240DEDF2402B
:100C900062444A85D2444249B2490561828097172D
:100CA0000000938727A96314F400804469B797175D
:100CB0000000938727A4E310F4F8C044ADBFA285D9
:100CC0002685212041D17D59D9B741119387818053
:100CD00026C2844322C44AC006C62A892E8489C4F7
:100CE0009C4C99E326852D2697170000938787A2B1
:100CF000631BF402C0400317C40093170701C183AC
:100D000093F68700ADEA93F6070195EEA5472320F9
:100D1000F900136707045AA47D55B2402244924457
:100D2000024941018280971700009387A7A06314AE
:100D3000F4008044C9B7971700009387A79BE31C72
:100D4000F4FAC0444DBF918B9DC34C5889C9930799
:100D500044046384F5004A852123232A04025E2487
:100D60002322040093F7B7FD5EA41C481CC05E2438
:100D700093E787005EA41C4899EB5E2413070020CC
:100D800093F707286385E700A2854A8599215E24A9
:100D900013F717001DC35C4823240400B307F04079
:100DA0001CCC1C480145B5FB8317C40013F707088A
:100DB0002DD793E707045EA485B7898B014791E39C
:100DC000584818C4F9BFDE25011122CC26CA06CE28
:100DD0004AC84EC613F78700AA842E8479EBD841FF
:100DE000634DE000B841634AE0000145F2406244CF
:100DF000D2444249B2490561828058547DD703A943
:100E000004009396370123A0040063DB06067048B4
:100E10005E24918B99C75C401D8E5C5899C33C4001
:100E20001D8E5C540C50814626858297FD575A24AE
:100E3000631DF5009440F54763E8D706B7074020E7
:100E40008507B3D7D700858BA5C31C482322040090
:100E50001CC09317370163D80700FD576314F500D2
:100E60009C4091E368C84C5823A02401BDDD930742
:100E700044046384F5002685E526232A0402B5B7D9
:100E80000C500146854626850297FD572A86E311B8
:100E9000F5F89C40B5DF75476385E70059476393D4
:100EA000E70423A0240191B7136707045AA47D55D2
:100EB00035BF83A90501E38A09F203A905008D8BDB
:100EC00023A0350133093941014791E3D84918C4BA
:100ED000E35D20F11C540C50CA864E86268582970D
:100EE0006347A0005E2493E707045EA4C9B7AA99EC
:100EF0003309A940F1BF9C49B9CF011122CC06CEDC
:100F00002A8411C51C4D81E72EC61922B2459717B8
:100F1000000093872780639BF5004C408397C500B2
:100F200095C722856244F240056171BD97170000A4
:100F3000938747806394F5000C44CDB79707000072
:100F40009387477BE39CF5FC4C44C9BFF240624465
:100F500001450561828001458280411122C406C697
:100F60002A844EA572A523200500232205002324F0
:100F700005002322050623280500232A0500232C2B
:100F80000500214681451305C505EFF06FA19707C0
:100F900000009387E7465CD09707000093870749D6
:100FA0001CD4970700009387E74C5CD49707000098
:100FB0009387474F00D01CD8B24022444101828021
:100FC00097050000938565F3A9A2411126C2130677
:100FD00080069384F5FFB384C4024AC02E8922C4DC
:100FE00006C693854407392E2A8401CD23200500A7
:100FF00023222501310508C4138684068145EFF0BC
:101000002F9A2285B24022449244024941018280B3
:101010001C4DADE3411106C622C49707000093871B
:1010200067FA1CD59387C1809C432324050423269B
:101030000504232805046314F50085471CCD2A8484
:101040001D2848C02285052808C422852D2048C4B3
:10105000484001469145113708440546A545F53DF0
:1010600048440946C945D53D85471CCCB240224479
:1010700041018280828041119387C18026C28443CE
:101080004AC006C69C4C22C42A8999E32685493762
:10109000938484048044DC40FD1763D607009C40A1
:1010A000B9CF8440C5BF0317C40039E7C1778507AE
:1010B0002322040623200400232204002324040006
:1010C0005CC423280400232A0400232C04002146A6
:1010D00081451305C405EFF0AF8C232A0402232CAD
:1010E000040223240404232604042285B24022445B
:1010F00092440249410182801304840671BF9145E4
:101100004A85E13588C051FDB1472320F9000144EB
:10111000E9BF797122D44AD052CC56CA5AC85EC6A9
:1011200006D626D24ECE2A8AAE8A130485040149F9
:10113000054BFD5B09ECB25022544A85925402598A
:10114000F249624AD24A424BB24B45618280044422
:1011500083294400FD1963D409000040E1BFDE2467
:10116000637BFB008397E40063877701A685528544
:10117000829A3369A90093848406E9BF1971A6DABB
:10118000AE848395E500A2DC86DE328463DB050055
:10119000DE2423A0060093F707089DE39307004091
:1011A00015A0300836C6992EB246E34305FE7247B5
:1011B000BD67F98F7977BA9793B717009CC2F9BFCB
:1011C000930700041CC0F6506654D65401450961CB
:1011D0008280DE25011122CC06CE26CA4AC8898B20
:1011E0002E8489CF930774041CC01CC885475CC833
:1011F000F2406244D244424905618280740030006A
:10120000AA84AD3FA2452A892685ED2819E98317CE
:10121000C40013F7072069FFF19B93E727005EA442
:10122000D1B7970700009387E7D99CD45E2408C004
:1012300008C893E707085EA4A2475CC8B24799CBE9
:101240008315E4002685C52411C55E24F19B93E730
:1012500017005EA45E243369F9002316240149BFF8
:10126000CDC183A7C5FF411122C406C626C213847F
:10127000C5FF63D307003E94AA840126938781812A
:101280009C4399EB2322040023AC81802244B2408A
:10129000268592444101DDA4637EF40014403307A7
:1012A000D4006396E7009843DC43369718C05CC0CF
:1012B000E1BFBA87D84319C3E37DE4FE9443338684
:1012C000D700631F86001040B29694C33386D700C0
:1012D000E31EC7FA10435843B29694C3D8C37DB7F0
:1012E0006375C400B1479CC055B71040B306C40035
:1012F0006316D70014435843B29614C058C0C0C3F5
:1013000071B78280011126CA93843500F19806CE08
:1013100022CC4AC84EC6A104B14763F1F404B144DB
:1013200063E0B4042A89912C9387818198433A849D
:1013300031E09387C1819C4391E781454A855128DB
:1013400023AEA180A6854A856920FD59631735071C
:10135000B1472320F9004A85152429A0E3D204FCD3
:10136000B1471CC10145F2406244D2444249B249EE
:10137000056182801C40858F63CE0702AD4663F60F
:10138000F6001CC03E9404C031A05C40631287028A
:1013900023ACF1804A85DD221305B4009307440095
:1013A00061993307F54061D33A94898F1CC065BFBA
:1013B0005CC3CDB722874040A5BF130435007198A8
:1013C000E30385FCB305A4404A852120E31D35FBDA
:1013D00041B7411122C42A842E8523A0018206C66A
:1013E000EFF0AFF2FD576317F500938701829C433E
:1013F00091C31CC0B240224441018280411122C4E9
:101400002E848395E50006C69D2A634905007C4825
:10141000AA977CC8B2402244410182805E247D7735
:101420007D17F98F5EA4FDB7DE25011122CC26CAF7
:101430004AC84EC606CE93F70710AA842E84328976
:10144000B68991C78395E5008946014609225E2445
:101450007D777D17F98F5EA48315E4006244F24026
:10146000CE864A86B24942492685D244056125A8DE
:10147000411122C42E848395E50006C6C928FD5774
:101480005A24631AF500FD77FD17F98F5EA4B24068
:101490002244410182808567D98F5EA468C8C5BF98
:1014A0008395E50005A8411122C42A842E85B285C2
:1014B000368623A0018206C6EFF08FE1FD57631741
:1014C000F500938701829C4391C31CC0B240224423
:1014D00041018280411122C42A842E8523A00182E9
:1014E00006C6E120FD576317F500938701829C43F0
:1014F00091C31CC0B240224441018280411122C4E8
:101500002A842E85B28523A0018206C66D20FD5750
:101510006317F500938701829C4391C31CC0B240BE
:10152000224441018280411122C42A842E8523A0B5
:10153000018206C67920FD576317F5009387018263
:101540009C4391C31CC0B24022444101828041119E
:1015500022C42A842E85B285368623A0018206C63F
:10156000BD20FD576317F500938701829C4391C30B
:101570001CC0B2402244410182808280828041119D
:1015800022C42A842E85B285368623A0018206C60F
:10159000A920FD576317F500938701829C4391C3EF
:1015A0001CC0B2402244410182809307800523A0E1
:1015B000F1827D5582809307800523A0F1827D55BD
:1015C00082809307800523A0F182014582809307E2
:1015D000800523A0F1827D5582809307800523A09A
:1015E000F1827D558280000001000000000801406A
:1015F0000000004000000000020000000008014060
:10160000000000400100000004000000000801404C
:101610000000004002000000080000000008014037
:1016200000000040030000004000000000080140EE
:10163000000400400000000080000000000801409D
:10164000000400400100000000010000000801400B
:10165000002C0140000000000002000000080140D2
:10166000002C0140010000000004000000080140BF
:10167000002C0140020000000008000000080140AA
:10168000002C01400300000001000000000C01409C
:10169000000400400200000002000000000C0140B5
:1016A000000400400300000040000000000C014066
:1016B000000800400000000080000000000C014015
:1016C000000800400100000000010000000C014083
:1016D000000800400200000000020000000C014071
:1016E00000080040030000006572726F7200000085
:1016F00000000000000000000000000000000000EA
:1017000000000000000000000000000000000000D9
:1017100000000000000000000000000000000000C9
:1017200000000000000000000000000000000000B9
:1017300000000000000000000000000000000000A9
:101740000000000000000000000000000000000099
:10175000000000001017000030170000F016000015
:101760000000000000000000000000000000000079
:101770000000000000000000000000000000000069
:101780000000000000000000000000000000000059
:101790000000000000000000000000000000000049
:1017A0000000000000000000000000000000000039
:1017B00000D8B805840000200000002000000020B0
:00000001FF
