:100000006F00004C130000001300000013000000FC
:100010001300000013000000130000001300000094
:100020001300000013000000130000001300000084
:08003000130000007300100032
:100038000000000000000000A0010000A401000072
:10004800000000005804000000000000000000004C
:100058005A0400005C0400000000000000000000DA
:100068005E040000000000006004000000000000C2
:1000780062040000640400006604000068040000D4
:100088006A0400006C0400006E04000070040000A4
:100098007204000074040000760400007804000074
:1000A8007A0400007C0400007E0400008004000044
:1000B8008204000084040000860400008804000014
:1000C8008A0400008C0400008E04000090040000E4
:1000D80092040000940400009604000098040000B4
:1000E8009A0400009C0400009E040000A004000084
:1000F800A2040000A4040000A6040000A804000054
:10010800AA040000AC040000AE040000B004000023
:10011800B2040000B4040000B6040000B8040000F3
:10012800BA040000BC040000BE0400000000000087
:080138000000000000000000BF
:10014000397101436EC619A0397141536AC866CA34
:1001500062CC5ECE19A0397101535AD056D252D416
:100160004ED64AD826DA22DC06DE3301614082828E
:1001700041114AC026C222C406C68282B24D410144
:10018000024D924C224CB24B4101024B924A224A00
:10019000B2494101024992442244B2404101828065
:1001A0007300203001A0EFF21FFB856712059387D3
:1001B00007953387A700130505035D71AA972E8A5B
:1001C00031458545422383DA4700C62732C602D22D
:1001D00002D402D682C082C282C482C602CC02CEBF
:1001E0002310010202D802DA02DC231E0102A92137
:1001F0000565854513050580812123128102371489
:1002000001400D4913050480E1494C104AD44ED6F3
:100210001D2E130504C04C104AD4231251034ED690
:100220001D263246373401402C087D16130504C0C4
:10023000231E4101F084231F0100231D01002129F9
:10024000C16793870706BEC093070010BEC6B707F5
:10025000FF003EDAB707002011493EDC0C18916719
:10026000130504C0CAC282C402D8231EF102DD23D2
:1002700063822405A1476388F40489E88C00130590
:1002800004C03D298145130504C00D2D37340140BC
:10029000835744C1130404C0854593E717005EA843
:1002A0002285ED2322858545ED2B85452285D923A1
:1002B0006161E1BD8C00130504C0852981451305EA
:1002C00004C02125E1B78C00130504C0D529814560
:1002D000130504C031255DBF856712059387079B11
:1002E000AA97DA279146B7370140938707C0630082
:1002F000D702A146630FD70011E3CEBBB737014049
:1003000003D747C113671700239AE7C082808EBFC7
:10031000F5B7CEBFE5B7EFF2BFE5130600199305B9
:10032000F00F01454935130600199305F00F0545F7
:100330009D3D130600199305F00F0945AD35452B7A
:100340001305803ED12B930400100144A285014582
:100350006137A28505454937A2850945B53F514515
:1003600005045D2BE31494FECDB7B7170240984304
:10037000B706FFF841111367170098C3D843370633
:100380000200758FD8C39843B706F7FEFD16758F28
:1003900098C39843B706FCFFFD16758F98C3D843E2
:1003A000B70681FFFD16758FD8C337079F0098C722
:1003B00002C402C69843C166558F98C3B71602405F
:1003C00005679C42F18F3EC6A24785073EC4B247EF
:1003D00081E7A247E397E7FEB71702409C431397D4
:1003E000E7006357070685473EC632478547631FC8
:1003F000F704B7170240D843B706C1FFFD16D8C3AC
:10040000D843D8C3D84313670740D8C3D843758FA0
:10041000D8C3D843B7062900558FD8C39843B70629
:100420000001558F98C3984393166700E3DD06FEDD
:10043000D843B7160240719BD8C3D843136727002F
:10044000D8C32147DC42B18BE39EE7FE41018280A5
:1004500002C661BF01A001A001A001A001A001A0EE
:1004600001A001A001A001A001A001A001A001A084
:1004700001A001A001A001A001A001A001A001A074
:1004800001A001A001A001A001A001A001A001A064
:1004900001A001A001A001A001A001A001A001A054
:1004A00001A001A001A001A001A001A001A001A044
:1004B00001A001A001A001A001A001A001A001A034
:1004C000970100209381013417510020130181B35B
:1004D000170500001305055E97050020938585B27A
:1004E0001386818063FAC5008322050023A055008E
:1004F00011059105E3EAC5FE13858180938501818D
:100500006377B500232005001105E36DB5FEFD42BC
:10051000739002BC8D42739042809302800873A056
:10052000023097020000938262B193E2320073902E
:100530005230EFF09FE397020000938202DE739047
:100540001234730020309C4513F7070113F8F700AD
:1005500001C7D8413368E80037270240145B3707EA
:10056000000F758F4DEB85462384D18037170140EE
:100570006315E5009A2135839AA18E2113F7F50FB3
:1005800039C318418146854E3D4F930F8002930237
:100590008004214E3396DE00B3F8C50063111603C4
:1005A0009398260033131F011343F3FF3377E300BF
:1005B000B318180133E7E8006397F70750C98506B9
:1005C000E39AC6FD18C11307F00F6375B7045441D1
:1005D0002146854E3D4F930F800293028004414E89
:1005E000B398CE0033F715016392E8021317260083
:1005F00001173313EF001343F3FFB376D300331720
:10060000E800D98E6395F703232A15010506E3193F
:10061000C6FD54C1828037170140E310E5F603C7D9
:10062000818021DF81BFE39C57F810C949BFE39F58
:1006300057FC23281501D9BF99C5371702401C4F15
:100640005D8D08CF8280B7170240984F1345F5FFA4
:10065000798D88CF82801E2137370140130707C06C
:10066000C207C1836304E502370700406300E50267
:1006700013070740630CE500371700409306078017
:100680006306D500130707C06316E500BA2193F788
:10069000F7F8D98FFA2193F7F7CFC207C183D98F23
:1006A0001EA1DE215EB59E211EB5B737014093879E
:1006B00007C06314F5009C251EB985475EA982809A
:1006C0001E31922103D82500C207C183F99BC207BE
:1006D000C1831EB11E3156211A2DC207C1834207A4
:1006E00041831377C7F8518F9225F59BC206336675
:1006F0000601D18F37360140130606C0C182631050
:10070000C502B225DD9B03D8E500D18FD221ED9B38
:1007100093F6F6CFD18FD22533660601D18E56A13E
:100720001AADFA215AB91EB182801E3165771307BE
:10073000F7CFC207C183BD9BC207C1831EB11E3163
:10074000562103D88500C20713960601162DC183D2
:1007500093F7F7FD758F96214182A206558FB6213A
:1007600042074183B3E606019206D58FB7360140B2
:10077000C207938606C0C183631ED502B62593F7D0
:10078000F7F703D8C5009206D58FD621C207C183DB
:10079000920693F7F7FBD58FFD769386F63FF18EA1
:1007A000F225C207C183336606010A06D18E13966D
:1007B0000601418252A11AADFA211ABD1EB18280F2
:1007C0001E3103D88500C207C18393F7F7EFC20734
:1007D000C1831EB11E3156215A2DC2071396060140
:1007E0004207962141831377C7F8558FB621C183FD
:1007F00093F7F7DFB3E60601A206D58FB7360140BF
:10080000C207938606C04182C183631FD502FD766D
:100810009386F67FF58FB62503D8C500A206D58F3F
:10082000D621C207C183A20693F7F7BFD58FF5760D
:10083000FD16F18EF225C207C1833366060112064A
:10084000D18E13960601418252A15AADFA215ABDAA
:100850001EB18280BA219E21D98FDA21D98FFA2147
:10086000D98F9A25D98FBA25D98FDA25D98F231216
:10087000F50482801E2189C593E717001EA182809E
:10088000C207C183F99BC207C183CDBF835745040B
:1008900091C52167D98F2312F5048280C607C583CD
:1008A000DDBF1E2189C593E707081EA18280C2070C
:1008B000C18393F7F7F7C207C183C5BF1E2DC207D7
:1008C000C183DD9BDD8D0EAD82801A2DFD77938770
:1008D000F77FF98FA205CD8FC207C1831EAD82803D
:1008E0005E2DC207C183DD9BDD8D4EAD8280B707D3
:1008F000002083A7070037177A0013070720B3D714
:10090000E70293F7F70F2386F1801307803EB38742
:10091000E7022395F1808280B7F700E0D843814653
:10092000799BD8C303D7A1803306A70290CBD4CB41
:1009300098431367070198C398431367170298C336
:10094000D843058B75DF9843799B98C3828000005C
:100950000008014000010000002C014000000000E0
:100960000008014000020000002C014004000000CB
:100970000008014000040000002C014008000000B5
:10098000000C014000100000002C0140000000009D
:10099000000C014000200000002C01400400000079
:1009A000000C014000400000002C01400800000045
:1009B0000008014000010000002C01400000000080
:1009C0000008014000020000002C0140040000006B
:1009D0000008014000040000002C01400800000055
:1009E0000008014000080000002C01400C0000003D
:1009F000000801400100000000000040000000006D
:100A00000008014002000000000000400400000057
:100A10000008014004000000000000400800000041
:100A20000008014008000000000000400C00000029
:100A300000080140400000000004004000000000E9
:100A40000008014080000000000400400400000095
:100A5000000C0140010000000004004008000000FC
:100A6000000C014002000000000400400C000000E7
:100A7000000C0140400000000008004000000000A1
:100A8000000C01408000000000080040040000004D
:100A9000000C0140000100000008004008000000B8
:100AA000000C014000020000000800400C000000A3
:080AB00000D8B80500000000A9
:00000001FF
